:020000040800F2
:1000000000500020B54200087941000885410008F1
:100010008B41000891410008974100080000000052
:100020000000000000000000000000009D410008EA
:10003000A941000800000000B5410008C1410008C6
:10004000FD420008FD420008FD420008FD42000894
:10005000FD420008FD420008FD420008FD42000884
:10006000FD420008FD420008FD420008FD42000874
:10007000FD420008FD420008FD420008FD42000864
:10008000FD420008FD420008FD420008FD42000854
:10009000CD410008FD420008FD420008FD42000875
:1000A000FD420008FD420008FD420008FD42000834
:1000B000FD420008FD420008FD420008FD42000824
:1000C000FD420008FD420008FD420008FD42000814
:1000D000FD420008E1410008FD420008FD42000821
:1000E000FD420008FD420008FD420008000000003B
:1000F0000000000000000000000000000000000000
:0C01000000000000000000005FF808F1A3
:1001100010B5054C237833B9044B13B10448AFF341
:1001200000800123237010BD700300200000000038
:10013000A8ED000808B5034B1BB103490348AFF312
:10014000008008BD0000000074030020A8ED000836
:10015000034613F8012B002AFBD1181A0138704707
:1001600081F0004102E000BF83F0004330B54FEA68
:1001700041044FEA430594EA050F08BF90EA020FD5
:100180001FBF54EA000C55EA020C7FEA645C7FEA68
:10019000655C00F0E2804FEA5454D4EB5555B8BF8B
:1001A0006D420CDD2C4480EA020281EA030382EAFC
:1001B000000083EA010180EA020281EA0303362D8E
:1001C00088BF30BD11F0004F4FEA01314FF4801C61
:1001D0004CEA113102D0404261EB410113F0004F73
:1001E0004FEA03334CEA133302D0524263EB43032A
:1001F00094EA050F00F0A780A4F10104D5F1200EC8
:100200000DDB02FA0EFC22FA05F2801841F1000122
:1002100003FA0EF2801843FA05F359410EE0A5F1F6
:1002200020050EF1200E012A03FA0EFC28BF4CF027
:10023000020C43FA05F3C01851EBE37101F00045DD
:1002400007D54FF0000EDCF1000C7EEB00006EEBEA
:100250000101B1F5801F1BD3B1F5001F0CD3490874
:100260005FEA30004FEA3C0C04F101044FEA4452CB
:1002700012F5800F80F09A80BCF1004F08BF5FEA52
:10028000500C50F1000041EB045141EA050130BD32
:100290005FEA4C0C404141EB010111F4801FA4F1D5
:1002A0000104E9D191F0000F04BF01460020B1FA2A
:1002B00081F308BF2033A3F10B03B3F120020CDA62
:1002C0000C3208DD02F1140CC2F10C0201FA0CF040
:1002D00021FA02F10CE002F11402D8BFC2F1200CA5
:1002E00001FA02F120FA0CFCDCBF41EA0C0190405B
:1002F000E41AA2BF01EB0451294330BD6FEA0404A4
:100300001F3C1CDA0C340EDC04F11404C4F120028E
:1003100020FA04F001FA02F340EA030021FA04F3A0
:1003200045EA030130BDC4F10C04C4F1200220FAF7
:1003300002F001FA04F340EA0300294630BD21FA35
:1003400004F0294630BD94F0000F83F4801306BFFB
:1003500081F480110134013D4EE77FEA645C18BFEF
:100360007FEA655C29D094EA050F08BF90EA020F86
:1003700005D054EA000C04BF1946104630BD91EA7E
:10038000030F1EBF0021002030BD5FEA545C05D181
:100390004000494128BF41F0004130BD14F58004C0
:1003A0003CBF01F5801130BD01F0004545F0FE4134
:1003B00041F470014FF0000030BD7FEA645C1ABF69
:1003C000194610467FEA655C1CBF0B46024650EAA0
:1003D000013406BF52EA033591EA030F41F40021CC
:1003E00030BD00BF90F0000F04BF0021704730B552
:1003F0004FF4806404F132044FF000054FF0000127
:1004000050E700BF90F0000F04BF0021704730B5E7
:100410004FF4806404F1320410F0004548BF4042BC
:100420004FF000013EE700BF42004FEAE2014FEA11
:1004300031014FEA02701FBF12F07F4393F07F4FEC
:1004400081F06051704732F07F4208BF704793F0EF
:100450007F4F04BF41F40021704730B54FF4607402
:1004600001F0004521F000411CE700BF50EA010205
:1004700008BF704730B54FF000050AE050EA0102AE
:1004800008BF704730B511F0004502D5404261EB1E
:1004900041014FF4806404F132045FEA915C3FF45F
:1004A000D8AE4FF003025FEADC0C18BF03325FEAFC
:1004B000DC0C18BF033202EBDC02C2F1200300FAAD
:1004C00003FC20FA02F001FA03FE40EA0E0021FAD2
:1004D00002F11444BDE600BF70B54FF0FF0C4CF4C0
:1004E000E06C1CEA11541DBF1CEA135594EA0C0F72
:1004F00095EA0C0F00F0DEF82C4481EA030621EAAD
:100500004C5123EA4C5350EA013518BF52EA0335E7
:1005100041F4801143F4801338D0A0FB02CE4FF099
:100520000005E1FB02E506F00042E0FB03E54FF0C9
:100530000006E1FB03569CF0000F18BF4EF0010EC1
:10054000A4F1FF04B6F5007F64F5407404D25FEABD
:100550004E0E6D4146EB060642EAC62141EA555170
:100560004FEAC52040EA5E504FEACE2EB4F1FD0CB2
:1005700088BFBCF5E06F1ED8BEF1004F08BF5FEA30
:10058000500E50F1000041EB045170BD06F00046E2
:1005900046EA010140EA020081EA0301B4EB5C048F
:1005A000C2BFD4EB0C0541EA045170BD41F4801187
:1005B0004FF0000E013C00F3AB8014F1360FDEBFAC
:1005C000002001F0004170BDC4F10004203C35DA88
:1005D0000C341BDC04F11404C4F1200500FA05F30B
:1005E00020FA04F001FA05F240EA020001F00042AC
:1005F00021F0004110EBD37021FA04F642EB060122
:100600005EEA430E08BF20EAD37070BDC4F10C044B
:10061000C4F1200500FA04F320FA05F001FA04F20F
:1006200040EA020001F0004110EBD37041F10001FB
:100630005EEA430E08BF20EAD37070BDC4F1200506
:1006400000FA05F24EEA020E20FA04F301FA05F26E
:1006500043EA020321FA04F001F0004121FA04F216
:1006600020EA020000EBD3705EEA430E08BF20EAE6
:10067000D37070BD94F0000F0FD101F00046400020
:1006800041EB010111F4801F08BF013CF7D041EAA2
:10069000060195F0000F18BF704703F000465200A6
:1006A00043EB030313F4801F08BF013DF7D043EA77
:1006B0000603704794EA0C0F0CEA135518BF95EA2D
:1006C0000C0F0CD050EA410618BF52EA4306D1D1B4
:1006D00081EA030101F000414FF0000070BD50EAD3
:1006E000410606BF1046194652EA430619D094EA5D
:1006F0000C0F02D150EA013613D195EA0C0F05D147
:1007000052EA03361CBF104619460AD181EA03019A
:1007100001F0004141F0FE4141F470014FF0000052
:1007200070BD41F0FE4141F4780170BD70B54FF0ED
:10073000FF0C4CF4E06C1CEA11541DBF1CEA13556D
:1007400094EA0C0F95EA0C0F00F0A7F8A4EB05044F
:1007500081EA030E52EA03354FEA013100F0888046
:100760004FEA03334FF0805545EA131343EA12630F
:100770004FEA022245EA111545EA10654FEA0026C4
:100780000EF000419D4208BF964244F1FD0404F57D
:10079000407402D25B084FEA3202B61A65EB0305D9
:1007A0005B084FEA32024FF480104FF4002CB6EB96
:1007B000020E75EB030E22BFB61A754640EA0C0016
:1007C0005B084FEA3202B6EB020E75EB030E22BF56
:1007D000B61A754640EA5C005B084FEA3202B6EB97
:1007E000020E75EB030E22BFB61A754640EA9C0056
:1007F0005B084FEA3202B6EB020E75EB030E22BF26
:10080000B61A754640EADC0055EA060E18D04FEAE3
:10081000051545EA16754FEA06164FEAC30343EA83
:1008200052734FEAC2025FEA1C1CC0D111F4801F50
:100830000BD141EA00014FF000004FF0004CB6E749
:1008400011F4801F04BF01430020B4F1FD0C88BFE8
:10085000BCF5E06F3FF6AFAEB5EB030C04BFB6EBF3
:10086000020C5FEA500C50F1000041EB045170BDE6
:100870000EF0004E4EEA113114EB5C04C2BFD4EB13
:100880000C0541EA045170BD41F480114FF0000E97
:10089000013C90E645EA060E8DE60CEA135594EA13
:1008A0000C0F08BF95EA0C0F3FF43BAF94EA0C0F16
:1008B0000AD150EA01347FF434AF95EA0C0F7FF48B
:1008C00025AF104619462CE795EA0C0F06D152EADF
:1008D00003353FF4FDAE1046194622E750EA4106C3
:1008E00018BF52EA43067FF4C5AE50EA41047FF4D4
:1008F0000DAF52EA43057FF4EBAE12E74FF0FF3C39
:1009000006E000BF4FF0010C02E000BF4FF0010C09
:100910004DF804CD4FEA410C7FEA6C5C4FEA430C82
:1009200018BF7FEA6C5C1BD001B050EA410C0CBFD1
:1009300052EA430C91EA030F02BF90EA020F002033
:10094000704710F1000F91EA030F58BF994208BF9A
:1009500090422CBFD8176FEAE37040F00100704757
:100960004FEA410C7FEA6C5C02D150EA013C07D1AE
:100970004FEA430C7FEA6C5CD6D152EA033CD3D0F9
:100980005DF8040B704700BF8446104662468C46F3
:100990001946634600E000BF01B5FFF7B7FF002826
:1009A00048BF10F1000F01BD4DF808EDFFF7F4FF4F
:1009B0000CBF012000205DF808FB00BF4DF808EDDA
:1009C000FFF7EAFF34BF012000205DF808FB00BFFD
:1009D0004DF808EDFFF7E0FF94BF012000205DF81F
:1009E00008FB00BF4DF808EDFFF7CEFF94BF0120D4
:1009F00000205DF808FB00BF4DF808EDFFF7C4FFCD
:100A000034BF012000205DF808FB00BF4FEA410C15
:100A10007FEA6C5C02D150EA013C0AD14FEA430CF8
:100A20007FEA6C5C02D152EA033C02D14FF0000035
:100A300070474FF0010070474FEA410212F5001273
:100A400015D211D56FF47873B3EB625212D94FEA15
:100A5000C12343F0004343EA505311F0004F23FAFF
:100A600002F018BF404270474FF00000704750EA54
:100A7000013005D111F0004008BF6FF00040704711
:100A80004FF00000704700BF4A0011D212F500126B
:100A900011D20DD56FF47873B3EB62520ED44FEAD6
:100AA000C12343F0004343EA505323FA02F0704756
:100AB0004FF00000704750EA013002D14FF0FF3094
:100AC00070474FF0000070474FEA4102B2F1E04337
:100AD00024BFB3F5001CDCF1FE5C0DD901F0004C25
:100AE0004FEAC0024CEA5070B2F1004F40EB830075
:100AF00008BF20F00100704711F0804F21D113F1A1
:100B00003872BCBF01F00040704741F480114FEAD9
:100B10005252C2F11802C2F1200C10FA0CF320FA62
:100B200002F018BF40F001004FEAC1234FEAD3237F
:100B300003FA0CFC40EA0C0023FA02F34FEA4303E9
:100B4000CCE77FEA625307D150EA01331EBF4FF072
:100B5000FE4040F44000704701F0004040F0FE408D
:100B600040F40000704700BF80F0004002E000BF8A
:100B700081F0004142001FBF5FEA410392EA030F88
:100B80007FEA226C7FEA236C6AD04FEA1262D2EBD2
:100B90001363C1BFD218414048404140B8BF5B42D7
:100BA000192B88BF704710F0004F40F4000020F070
:100BB0007F4018BF404211F0004F41F4000121F086
:100BC0007F4118BF494292EA030F3FD0A2F10102D0
:100BD00041FA03FC10EB0C00C3F1200301FA03F10E
:100BE00000F0004302D5494260EB4000B0F5000F31
:100BF00013D3B0F1807F06D340084FEA310102F1F0
:100C00000102FE2A51D2B1F1004F40EBC25008BFA1
:100C100020F0010040EA03007047490040EB00006B
:100C200010F4000FA2F10102EDD1B0FA80FCACF19A
:100C3000080CB2EB0C0200FA0CF0AABF00EBC25099
:100C400052421843BCBFD0401843704792F0000F87
:100C500081F4000106BF80F400000132013BB5E7DA
:100C60004FEA41037FEA226C18BF7FEA236C21D050
:100C700092EA030F04D092F0000F08BF08467047B5
:100C800090EA010F1CBF0020704712F07F4F04D183
:100C9000400028BF40F00040704712F100723CBF96
:100CA00000F50000704700F0004343F0FE4040F4C0
:100CB000000070477FEA226216BF08467FEA23637E
:100CC0000146420206BF5FEA412390EA010F40F469
:100CD000800070474FF0000304E000BF10F00043B5
:100CE00048BF40425FEA000C08BF704743F096439C
:100CF00001464FF000001CE050EA010208BF7047B7
:100D00004FF000030AE000BF50EA010208BF70473D
:100D100011F0004302D5404261EB41015FEA010C52
:100D200002BF84460146002043F0B64308BFA3F14A
:100D30008053A3F50003BCFA8CF2083AA3EBC2532C
:100D400010DB01FA02FC634400FA02FCC2F120024B
:100D5000BCF1004F20FA02F243EB020008BF20F082
:100D60000100704702F1200201FA02FCC2F12002E8
:100D700050EA4C0021FA02F243EB020008BF20EADD
:100D8000DC7070474FF0FF0C1CEAD0521EBF1CEA0B
:100D9000D15392EA0C0F93EA0C0F6FD01A4480EAF9
:100DA000010C400218BF5FEA41211ED04FF00063E2
:100DB00043EA501043EA5111A0FB01310CF000400E
:100DC000B1F5000F3EBF490041EAD3715B0040EA34
:100DD000010062F17F02FD2A1DD8B3F1004F40EB04
:100DE000C25008BF20F00100704790F0000F0CF0D7
:100DF000004C08BF49024CEA502040EA51207F3A9B
:100E0000C2BFD2F1FF0340EAC250704740F4000075
:100E10004FF00003013A5DDC12F1190FDCBF00F066
:100E200000407047C2F10002410021FA02F1C2F114
:100E3000200200FA02FC5FEA310040F1000053EAB0
:100E40004C0308BF20EADC70704792F0000F00F0FE
:100E5000004C02BF400010F4000F013AF9D040EA04
:100E60000C0093F0000F01F0004C02BF490011F498
:100E7000000F013BF9D041EA0C018FE70CEAD15396
:100E800092EA0C0F18BF93EA0C0F0AD030F0004C16
:100E900018BF31F0004CD8D180EA010000F00040CA
:100EA000704790F0000F17BF90F0004F084691F088
:100EB000000F91F0004F14D092EA0C0F01D14202C2
:100EC0000FD193EA0C0F03D14B0218BF084608D18B
:100ED00080EA010000F0004040F0FE4040F40000D5
:100EE000704740F0FE4040F4400070474FF0FF0C68
:100EF0001CEAD0521EBF1CEAD15392EA0C0F93EAAF
:100F00000C0F69D0A2EB030280EA010C49024FEA00
:100F1000402037D04FF0805343EA111143EA1013B9
:100F20000CF000408B4238BF5B0042F17D024FF471
:100F3000000C8B4224BF5B1A40EA0C00B3EB510F4C
:100F400024BFA3EB510340EA5C00B3EB910F24BF35
:100F5000A3EB910340EA9C00B3EBD10F24BFA3EBBA
:100F6000D10340EADC001B0118BF5FEA1C1CE0D182
:100F7000FD2A3FF650AF8B4240EBC25008BF20F035
:100F8000010070470CF0004C4CEA50207F32C2BF89
:100F9000D2F1FF0340EAC250704740F400004FF026
:100FA0000003013A37E792F0000F00F0004C02BF57
:100FB000400010F4000F013AF9D040EA0C0093F021
:100FC000000F01F0004C02BF490011F4000F013B7B
:100FD000F9D041EA0C0195E70CEAD15392EA0C0FE3
:100FE00008D142027FF47DAF93EA0C0F7FF470AF1B
:100FF000084676E793EA0C0F04D14B023FF44CAF5E
:1010000008466EE730F0004C18BF31F0004CCAD1F2
:1010100030F000427FF45CAF31F000437FF43CAF2E
:101020005FE700BF80B58AB000AF06237B8406234C
:101030003B840023FB840023FB830023BB834FF608
:10104000FF73BB8400237B619F4B1B887B849F4B7A
:101050001B883B8400237B609D4BFB6001233B612D
:101060007B8C4EF6EE62934257D04FF6FF7293425E
:1010700003D0002B00F0F48093E13B8C002B16D1C1
:10108000914800F0B1F90346002B40F0948107F13C
:1010900014023B1D1146184603F092FC0346FB76F2
:1010A000FB7E002B00F08781FB7E9BB28BE13B8CAB
:1010B0004EF6EE62934225D1834800F095F903463F
:1010C000002B0ED107F114023B1D1146184603F008
:1010D00077FC0346FB76FB7E002B02D0FB7E9BB2A7
:1010E00071E14FF000024FF000037849012003F056
:1010F0000FFB0346FB76FB7E002B00F05C81FB7E42
:101100009BB260E100F002FA0346FB76FB7E002B07
:1011100000F05181FB7E9BB255E13B8C002B63D1EB
:101120000023FB8430E06B4B1B889AB2FB8C6A492E
:1011300031F813309A4201D1FB8CBB84FA8CB7F999
:1011400024309A421DD0FB8C634A32F81330634935
:10115000184600F06FF90346BB83BB8B012B10D000
:10116000FB8C5D4A32F813205C4B1B8819461046F5
:1011700000F064FA0346FB83FB8B002B01D0FB8B52
:1011800021E1FB8C0133FB84FB8C022BCBD94FF08C
:1011900000024FF000034C49012003F0B9FA034666
:1011A000FB76FB7E002B02D0FB7E9BB20BE1002383
:1011B0007B604B4BFB6001233B61444800F014F91A
:1011C0000346002B40F0F98007F114023B1D114645
:1011D000184603F0F5FB0346FB76FB7E002B00F080
:1011E000EC80FB7E9BB2EEE03B8C4FF6FF729342AD
:1011F0002BD100237B603A4BFB6001233B613348DA
:1012000000F0F2F80346002B0ED107F114023B1D4B
:101210001146184603F0D4FB0346FB76FB7E002BF9
:1012200002D0FB7E9BB2CEE04FF000024FF00003F5
:101230002549012003F06CFA0346FB76FB7E002B68
:1012400000F0BB80FB7E9BB2BDE000F05FF903467F
:10125000FB76FB7E002B00F0B080FB7E9BB2B2E001
:101260003B8C002B0AD100F051F90346FB76FB7E44
:10127000002B00F0A480FB7E9BB2A4E03B8C4FF6D9
:10128000FF7293421CD100237B60154BFB6001234E
:101290003B610E4800F0A8F80346002B40F08F8019
:1012A00007F114023B1D1146184603F089FB034663
:1012B000FB76FB7E002B00F08280FB7E9BB282E0FF
:1012C0000023FB843FE000BF00F0000800F00108AD
:1012D0000080000806F00008C40500208C030020F0
:1012E000008001083A4B1B889AB2FB8C394931F8CF
:1012F00013309A4201D1FB8CBB84FA8CB7F92430AD
:101300009A421DD0FB8C334A32F8133032491846CA
:1013100000F090F80346BB83BB8B012B10D0FB8CF5
:101320002C4A32F813202C4B1B881946104600F02B
:1013300085F90346FB83FB8B002B01D0FB8B42E03E
:10134000FB8C0133FB84FB8C022BCBD94FF00002CA
:101350004FF000032149012003F0DAF90346FB7640
:10136000FB7E002B02D0FB7E9BB22CE000237B6037
:101370001B4BFB6001233B611A4800F035F8034624
:10138000002B1CD107F114023B1D1146184603F037
:1013900017FB0346FB76FB7E002B10D0FB7E9BB237
:1013A00011E000F0B3F80346FB76FB7E002B08D07B
:1013B000FB7E9BB207E000BF04E000BF02E000BF7D
:1013C00000E000BF002318462837BD4680BD00BF9F
:1013D00006F00108C40500208C03002000F001087D
:1013E0000080000800F0000880B485B000AF78608D
:1013F0000123FB6045F255537B810DE07B681B8820
:101400007B817B894FF6FF72934202D00023FB6001
:1014100006E07B6804337B607B68054A9342EDD924
:10142000FB689BB218461437BD4680BC704700BFAE
:10143000FFF3000880B586B000AF03463960FB803B
:101440000023FB8145F25553BB810123FB821C4BDA
:101450003B611B4BBB60002000F0ACF80346FB81F6
:10146000FB89AB2B01D1AB2325E0FB8903F50033CE
:101470003C339B02BB60FB8901339A02114B13443E
:101480003B6112E03B691B88BB81BA89FB889A42A9
:1014900008D13B69023B1B889AB23B681A80002343
:1014A000FB8207E03B69043B3B61BB6802333A695E
:1014B0009A42E7D8FB8A18461837BD4680BD00BF60
:1014C00000F00008FEEF000880B584B000AF0346CE
:1014D0000A46FB801346BB800023FB81BA88FB8849
:1014E0001146184600F0AAF80346FB81FB89802BC1
:1014F00007D1BA88FB881146184600F0FDF803466C
:10150000FB81FB8918461037BD4680BD80B586B08B
:1015100000AF0023FB7500233B6100233B60214BA0
:10152000BB600123FB602048FFF75EFF0346002BF2
:101530000DD107F110023B461146184603F040FA60
:101540000346FB75FB7D002B01D0FB7D25E04FF0B2
:1015500000024FF000031449012003F0D9F80346BC
:10156000FB75FB7D002B01D0FB7D16E00F4BBB60B4
:101570000F48FFF739FF0346002B0DD107F110028A
:101580003B461146184603F01BFA0346FB75FB7DEC
:10159000002B01D0FB7D00E0002318461837BD4624
:1015A00080BD00BF0080000800F000080080010836
:1015B00000F0010880B485B000AF0346FB7106233C
:1015C000FB810623BB811B4B1B88FB811A4B1B88AD
:1015D000BB81FB79002B1BD0012B25D1BB89002BB4
:1015E00008D1FB894EF6EE62934201D100231CE044
:1015F00040231AE0FB89002B08D1BB894EF6EE622E
:10160000934201D1402310E000230EE0AB230CE015
:10161000FB89002B01D1002307E0BB89002B01D1FE
:10162000402302E0AB2300E0002318461437BD46F8
:1016300080BC704700F0000800F0010890B587B04A
:1016400000AF03460A46FB801346BB800023FB74B1
:1016500000233B82254B7B61254BFB600120FFF77C
:10166000A9FF03463B823B8AAB2B01D1AB2339E078
:101670003B8A03F500333C339B027B613B8A013399
:101680009A021C4B1344FB6027E07B691B68B3F193
:10169000FF3F1FD1BB884FF000041A4623467969EB
:1016A000012003F035F80346FB74FB7C002B02D0CD
:1016B000FB7C9BB216E07B69991CFB884FF0000411
:1016C0001A462346012003F023F80346FB74FB7CF3
:1016D0009BB207E07B6904337B617A69FB689A42BD
:1016E000D3D3802318461C37BD4690BD00F00008B8
:1016F00000F40008FFEF000880B58CB000AF03468F
:101700000A46FB801346BB80002387F82530534BE5
:10171000FB620023BB6200237B840023FB84002345
:101720003B840023FB830023BB610020FFF742FFC3
:1017300003467B847B8C402B04D1484BFB62484B97
:10174000BB6209E07B8C002B04D1464BFB62464B0D
:10175000BB6201E0AB237CE04EF6EE624FF000038B
:10176000F96A012002F0D4FF034687F8253097F884
:101770002530002B03D097F825309BB269E0BA885A
:10178000FB8811461846FFF759FF03463B843B8C04
:10179000002B01D03B8C5CE00023FB8427E0FB8C1A
:1017A000324A32F81330FA889A421DD0FB8C2F4A05
:1017B00032F813302E491846FFF73CFE0346FB83F0
:1017C000FB8B012B10D0FB8C284A32F81320284BBE
:1017D0001B8819461046FFF731FF03463B843B8CBC
:1017E000002B01D03B8C34E0FB8C0133FB84FB8C61
:1017F000022BD4D90023BB60BB6A3B6101237B6110
:1018000007F1180207F108031146184603F0D8F84B
:10181000034687F8253097F82530002B03D097F83A
:1018200025309BB215E04FF000024FF00003F96A3B
:10183000012002F06DFF034687F8253097F8253028
:10184000002B03D097F825309BB202E097F82530A3
:101850009BB218463037BD4680BD00BF00F000087F
:101860000080010800F0010800800008C405002085
:101870008C03002080B500AF074B80221A61012045
:1018800000F04CF9044B4FF400021A61012000F003
:1018900045F900BF80BD00BF000C014080B483B09B
:1018A00000AF0346FB71FB7903F00103002B04D06A
:1018B0001B4B4FF400421A6103E0194B4FF00042FA
:1018C0001A61FB7903F00203002B04D0144B4FF490
:1018D00080421A6103E0124B4FF080421A61FB799B
:1018E00003F00403002B04D00D4B4FF400521A6197
:1018F00003E00B4B4FF000521A61FB7903F0080331
:10190000002B04D0064B4FF480521A6103E0044BC5
:101910004FF080521A6100BF0C37BD4680BC704743
:10192000000C014080B582B000AF0346FB71FB792B
:101930001B09DBB21846FFF7B1FFFFF79BFF322010
:1019400000F0ECF8FB7903F00F03DBB21846FFF769
:10195000A5FFFFF78FFF322000F0E0F800BF083747
:10196000BD4680BD80B500AF054B4FF080721A6157
:101970000120FFF7D7FF022002F024FD00BF80BD49
:10198000000C014080B582B000AF7860094B4FF485
:1019900080721A6106E07B685A1C7A601B781846D0
:1019A000FFF7C0FF7B681B78002BF4D100BF08371E
:1019B000BD4680BD000C014080B582B000AF03463B
:1019C000FB71064B4FF480721A61FB791846FFF7E2
:1019D000A9FF00BF0837BD4680BD00BF000C014015
:1019E00080B582B000AF03460A46FB711346BB7157
:1019F000154B4FF080721A61BB79032B17D801A2E7
:101A000052F823F02F1A0008151A00081F1A0008B0
:101A1000271A0008FB7943F04003FB7107E0FB79CC
:101A20001433FB7103E0FB795433FB7100BFFB7986
:101A300063F07F03FB71FB791846FFF773FF00BF6C
:101A40000837BD4680BD00BF000C014080B500AF27
:101A5000044B4FF080721A610C20FFF763FF00BF48
:101A600080BD00BF000C014080B500AF2A4B4FF095
:101A700080721A61284B4FF400021A61264B4FF016
:101A800000421A61244B4FF080421A61224B4FF002
:101A900000521A61204B4FF080521A611E4B4FF0DA
:101AA00080721A61642002F08DFC0320FFF7F6FEBD
:101AB000FFF7E0FE052002F085FC0320FFF7EEFEB5
:101AC000FFF7D8FE052002F07DFC0320FFF7E6FEBD
:101AD000FFF7D0FE052002F075FC0220FFF7DEFEC6
:101AE000FFF7C8FE052002F06DFC2820FFF71AFF63
:101AF000052002F067FC0F20FFF714FF052002F01D
:101B000061FC0120FFF70EFF052002F05BFCFFF7F0
:101B100029FF00BF80BD00BF000C014090B486B01B
:101B200000AF78607A6813465B0013444FF00004FE
:101B3000C7E902344FF000034FF00004C7E9043452
:101B400006E0D7E90434591C44F10002C7E9041245
:101B5000D7E90412D7E90234994272EB0403F0DBAF
:101B600000BF1837BD4690BC704780B582B000AF4B
:101B700078607868FEF7ECFA03469BB219467868FD
:101B800008F054FB00BF0837BD4680BD80B582B069
:101B900000AF78607868FEF7DBFA03469AB26423F8
:101BA0007968034805F04DF900BF0837BD4680BD90
:101BB000000A002080B582B000AF7860124B1B781D
:101BC0005A1CD1B2104A11701A46104B1978104B9A
:101BD00099540D4B1B781A460D4B002199540B4B11
:101BE0001B780A2B06D1084B1A780A4B1A70064B41
:101BF00000221A7001220549074805F0BBF900BF11
:101C00000837BD4680BD00BF90030020FC090020BE
:101C1000D00500208F030020000A002080B582B08C
:101C200000AF5F4A13786FF3410313705C4A137877
:101C30006FF3C71313705A4A53786FF3000353704E
:101C4000574A13786FF38613137002F059FB00F0B4
:101C5000BDF802F0CDFDFFF7E5F952490020FFF78E
:101C6000E9FB51490120FFF7E5FB02F0E7FD00F039
:101C7000DFF900F005F900F057F900F0AFF94FF483
:101C8000FA7002F09FFB08F0D1F9484804F066FCB6
:101C90000021474804F0B0FC454B1B6840F6C842A1
:101CA0005A63FFF7E1FEFFF7D1FE00F00DFA00F0F6
:101CB0002DFBFFF757FE1423FB7197F90730002B1C
:101CC00003DB97F90730092B03DD97F90730142B55
:101CD00057D1FFF747FE324A137843F004031370DD
:101CE00097F90730022B02D100F002FC2BE097F9A4
:101CF0000730032B02D100F029FD24E097F90730CB
:101D0000082B02D101F0D2FB1DE097F90730042B1C
:101D100002D101F01DF916E097F90730002B02D12E
:101D200002F082F80FE097F90730012B0BD11C4A23
:101D3000137843F08003137001221E491E4805F0FA
:101D400019F900F003FDFFF70DFE00210020FFF759
:101D500047FE1A48FFF716FE01210020FFF740FE5C
:101D60001748FFF70FFE02210020FFF739FE154844
:101D7000FFF708FE03210020FFF732FE1248FFF7AD
:101D800001FE00F01DFB0346FB7197F907300A2B9B
:101D900093D1074B1B6840F6C8425A638DE700BFDA
:101DA000F8090020940A0020CC050020540A0020E5
:101DB000B8090020FC090020000A0020C0ED00083E
:101DC000CCED0008D8ED0008ECED000880B594B02B
:101DD00000AF07F1280328220021184608F02AFE48
:101DE00007F1140300221A605A609A60DA601A61DF
:101DF0003B1D00221A605A609A60DA600123BB62C0
:101E00004FF48033FB6200233B630123BB63022357
:101E10007B644FF48033BB644FF4E013FB6407F141
:101E20002803184603F0C8FE0346002B01D002F039
:101E30005BF80F237B610223BB610023FB614FF43E
:101E400080633B6200237B6207F114030221184682
:101E500004F032F90346002B01D002F045F81023BC
:101E60007B6000233B613B1D184604F0C1FA03462A
:101E7000002B01D002F038F800BF5037BD4680BDBE
:101E800080B58CB000AF07F10C0324220021184666
:101E900008F0D0FD3B1D00221A605A60214B4FF024
:101EA00080421A601F4B00225A601E4B00229A602B
:101EB0001C4B4FF6FF72DA601A4B00221A61194B65
:101EC00000229A610323FB6002233B6101237B61B3
:101ED0000023BB610A23FB6102233B6201237B6277
:101EE0000023BB620A23FB6207F10C0319460D486D
:101EF00004F0B4FB0346002B01D001F0F5FF0023F2
:101F00007B600023BB603B1D1946064804F008FFB8
:101F10000346002B01D001F0E7FF00BF3037BD467C
:101F200080BD00BF540A002080B58AB000AF07F121
:101F3000200300221A605A603B1D00221A605A607A
:101F40009A60DA601A615A619A61224B224A1A60D9
:101F5000204B15225A601F4B00229A601D4B4FF6F2
:101F6000AD72DA601B4B00221A611A4B00229A6193
:101F7000184804F016FB0346002B01D001F0B4FF13
:101F800000233B6200237B6207F1200319461148BE
:101F900004F0C6FE0346002B01D001F0A5FF60232C
:101FA0007B600023BB600023FB6000237B613B1D43
:101FB00000221946074804F0DFFB0346002B01D03E
:101FC00001F092FF034802F051F800BF2837BD46E8
:101FD00080BD00BFB80900200008004080B500AFF8
:101FE000114B124A1A60104B4FF4E1325A600E4BFB
:101FF00000229A600C4B0022DA600B4B00221A611F
:10200000094B0C225A61084B00229A61064B0022B0
:10201000DA61054804F0C8FE0346002B01D001F048
:1020200063FF00BF80BD00BF000A002000380140F0
:1020300080B588B000AF07F1100300221A605A6023
:102040009A60DA601E4B9B691D4A43F0200393613E
:102050001B4B9B6903F02003FB60FB68184B9B69DB
:10206000174A43F008039361154B9B6903F008037B
:10207000BB60BB68124B9B69114A43F00403936138
:102080000F4B9B6903F004037B607B6800224FF2D7
:10209000B0110C4802F096FE4FF2B0133B610123E1
:1020A0007B610023BB610223FB6107F1100319462A
:1020B000044802F02DFD00BF2037BD4680BD00BFA3
:1020C00000100240000C014080B582B000AFFFF765
:1020D00049FC00F075F90346BB71BB79102B20D089
:1020E00000210020FFF77CFC2848FFF74BFC012172
:1020F0000020FFF775FC2648FFF744FC0221022070
:10210000FFF76EFC2348FFF73DFC03210420FFF797
:1021100067FC2148FFF736FC41F2707002F052F97B
:1021200029E000210420FFF75BFC1B48FFF72AFC95
:1021300001210120FFF754FC1848FFF723FC02217E
:102140000420FFF74DFC1648FFF71CFC0023FB7131
:102150000EE0FB7903211846FFF742FC1148FFF718
:1021600011FC4FF4967002F02DF9FB790133FB71ED
:10217000FB79122BEDD90C48FFF7F7FC0A48FFF763
:1021800005FD00BF0837BD4680BD00BFFCED00085F
:1021900014EE00082CEE000840EE000850EE000897
:1021A00064EE000870EE0008BCF1000890B593B032
:1021B00004AF78604A4B00221A704A49786809F0E7
:1021C000C1FA0346002B16D04FF080435B6A1BB266
:1021D000002B00DA03339B103B86B7F9302007F160
:1021E0001C034149184609F061FA07F11C0318461F
:1021F000FFF7BBFC6FE03D49786809F0A3FA03469E
:10220000002B04D04FF0804300225A6263E038492B
:10221000786809F097FA0346002B0FD035497868A3
:1022200009F090FA03460433184608F0D4FB03463D
:102230007B86314B1B687A8E5A634CE007F11401A0
:1022400007F1180207F10803029307F10C03019349
:1022500007F1100300930B462849294809F046FA74
:1022600078637B6B052B36D1BB691846FEF7DCF82B
:1022700003460C46234AC2E902347B691846FEF73E
:10228000D3F803460C461F4AC2E904343B6918469A
:10229000FEF7CAF803460C461A4AC2E90634FB6840
:1022A0005AB2184B1A70BB6840F22B22934204D1E9
:1022B000154A137843F001031370BB68B3F5DE7F52
:1022C00009D1114A13786FF3000313700A4B1B688E
:1022D00040F6C8425A6300BF3C37BD4690BD00BFC0
:1022E0008E03002074EE00087CEE00088CEE0008DF
:1022F00094EE000898EE0008B8090020A0EE00084F
:10230000D005002000000020F809002090B58BB017
:1023100000AF284B07F118040FCB07C42370264ADF
:1023200007F10C0307CA83E80700244A3B4607CAA3
:1023300083E80700002387F8273033E097F8273039
:102340009B0007F12802134453F81C2C97F8273000
:102350009B0007F128010B4453F8283C1A4497F8D6
:1023600027309B0003F10053A3F618031B689A4221
:1023700013D002210420FFF733FB07F1180318469E
:10238000FFF700FB4FF47A7002F01CF8FFF7EAFA4F
:102390004FF4FA7002F016F8EBE797F827300133A4
:1023A00087F8273097F82730022BC7D900BF2C3782
:1023B000BD4690BDB8EE0008C8EE0008D4EE000897
:1023C000B0B586B000AF1023FB75474B3C1D1D46D2
:1023D0000FCD0FC42B682370444B4FF088321A6026
:1023E000424BDB68414A43F0FF03D3600023BB75D7
:1023F0006DE03E4BDB68BA7D012101FA02F2D24367
:1024000011463A4A0B40D360384B1B68BA7D9200A4
:102410000F2101FA02F2D2431146344A0B401360F5
:10242000324B1B68BA7D9200022101FA02F211467A
:102430002E4A0B431360022001F0C4FF2B4B9B6814
:1024400003F0F003F02B1ED000237B7518E0274B20
:102450009B687A7D0432012101FA02F21340DBB25B
:102460007A7D0432012101FA02F2934205D0BB7D4C
:102470009B00DAB27B7D1344FB757B7D01337B755A
:102480007B7D032BE3D9194B1B68BA7D92000F218A
:1024900001FA02F2D2431146144A0B401360134B67
:1024A0001B68BA7D9200082101FA02F211460F4A18
:1024B0000B4313600D4BDB68BA7D012101FA02F278
:1024C00011460A4A0B43D360BB7D0133BB75BB7D0C
:1024D000032B8ED9FB7D07F11802134413F8143C2B
:1024E00018461837BD46B0BDE0EE000800080140B0
:1024F000B0B58AB000AF884A137843F00103137077
:10250000854A137843F002031370844B01221A703A
:10251000EBE04FF080435B6A7B84B7F92230002BFD
:1025200000DA03339B107B847C4B1B78002B63D039
:102530007B497C4809F006F90346002B0ED07B8CC2
:102540005BB21A4607F108037749184609F0AEF85E
:1025500007F108031846FFF708FB4AE0714B1B78A8
:102560003B70704B5B787B706E4B9B78BB706D4B98
:10257000DB78FB706B4B1B793B716A4B5B797B7132
:10258000684B9B79BB71674BDB79FB71D7E90045E1
:10259000664B1B881846FDF735FF02460B46204662
:1025A0002946FDF7E3FD03460C4618462146FEF793
:1025B00043FA0346FB84B7F926305D4A12889342FA
:1025C00002DD5B4B1B88FB84B7F92630574A128823
:1025D000934202DA554B1B88FB844F4B1B7803F068
:1025E0000103DBB2002B04D0524B1B68B7F9262045
:1025F0005A634A4B00221A707B8C5BB21A4607F171
:1026000008034D49184609F051F800210020FFF752
:10261000E7F907F108031846FFF7B4F9B7F92630D0
:10262000A3F6C843642202FB03F3444A82FB03126D
:102630009212DB17D31A3B84B7F9202007F1080365
:102640003F49184609F032F802210020FFF7C8F987
:1026500007F108031846FFF795F9FFF7B1FE0346A7
:10266000FB77FA7F97F825309A4223D0FB7F0A2B1D
:102670000FD00D2B02D0002B06D018E0264A13787D
:102680006FF38203137012E04FF0804300225A620E
:102690000DE0214B1B78C3F30003DBB283F0010391
:1026A000D9B21D4A137861F30003137000BFFB7F9A
:1026B00087F82530184B1B7803F00103DBB2002BA1
:1026C0000CD11C4B1B6840F6C8425A6302210B20F8
:1026D000FFF786F91B48FFF755F906E002210B20AA
:1026E000FFF77EF91848FFF74DF90B4B1B7803F005
:1026F0000403DBB2002B7FF40CAF0E4B1B6840F6DB
:10270000C8425A63044A13786FF34103137000BF41
:102710002837BD46B0BD00BFF80900208E03002059
:1027200074EE0008400A0020F4EE0008940A00202D
:10273000CC050020B8090020FCEE0008D58311501C
:1027400008EF000818EF000824EF0008B0B5ADF559
:10275000627D02AF4FF000034FF0000407F55472A2
:10276000C2E900344FF000034FF0000407F55E7239
:10277000C2E900344FF000034FF0000407F5527235
:10278000C2E900344FF000034FF0000407F55C721B
:10279000C2E900344FF000034FF0000407F55A720D
:1027A000C2E900344FF000034FF0000407F5507207
:1027B000C2E900340023A7F866330023A7F8643386
:1027C0000023A7F83E3301F0F3FDC7F85C030E23A6
:1027D00087F85B33AF4A13786FF300031370AE4B87
:1027E0001A88AE4B1B88D31A9AB2AD4B1A8080E37D
:1027F000FFF7E6FD034687F83D3397F83D2397F84A
:102800005B339A4200F0978097F83D330E2B00F22D
:10281000868001A252F823F0612800081F290008D1
:102820001F2900081F2900081F2900081F29000868
:102830001F2900081F2900081F2900081F29000858
:10284000CD2800086B2800087F28000855280008BC
:10285000932800088F4A13786FF3820313705EE0A9
:102860004FF0804300225A6259E08E4B93F90030BA
:10287000DBB20133DBB25AB28A4B1A704FE0894B9C
:1028800093F90030DBB2013BDBB25AB2854B1A70D0
:1028900045E0854B1B6840F6C8425A637D4A137871
:1028A0006FF3000313704FF000034FF0000407F5BF
:1028B0005A72C2E900344FF000034FF0000407F5EC
:1028C0005C72C2E9003400F05FFF28E0714B1B78B6
:1028D000C3F30003DBB283F00103D9B26D4A13786E
:1028E00061F3000313706B4B1B7803F00103DBB241
:1028F000002B0FD1674B1B7823F07F03DBB2002B3B
:1029000008D0142301226949694804F09AFA654BFA
:1029100000225A7001F04CFDC7F85C0300BF97F825
:102920003D330E2B03D10D2387F85B3303E097F87B
:102930003D3387F85B334FF080435B6A1BB2002B5B
:1029400000DA03339B10A7F83E33524B1B7823F079
:102950007F03DBB2002B1DD0564B1B78002B19D008
:1029600001F0CEF94B4B1B7803F04003DBB2002B98
:1029700010D1484A137843F040031370454A137846
:1029800043F00103137001F013FDC7F86003002347
:1029900087F85A333F4B1B7803F00103DBB2002B5F
:1029A00000F0FF81D7F85C33C7F8383301F000FD41
:1029B000C7F85C03D7F85C23D7F83833D31A184626
:1029C000FEF788F903461846FDF72EFD4FF000028A
:1029D000394BFDF7ABFE03460C4607F55072C2E9D2
:1029E0000034304B93F900301A46B7F93E33D31A0E
:1029F0001846FDF707FD03460C4607F55472C2E979
:102A00000034244B1B7823F07F03DBB2002B00F053
:102A1000968097F85A2307F5C873B7F83E1323F842
:102A2000121001F0C5FC034699B2D7F860339BB28F
:102A300097F85A23CB1A99B23B4623F8121097F80D
:102A40005A233B4633F812301A46164B5B78194628
:102A50004FF47A7303FB01F39A4207DB0D4A1378B4
:102A60006FF3000313700F4B00225A7097F85A331C
:102A7000013387F85A3397F85A334A2B06D8054B57
:102A80001B7803F00103DBB2002B58D1002387F839
:102A9000593337E0F8090020CC050020940A0020C3
:102AA000FA09002000000020B809002030EF0008DB
:102AB000000A00208F03002000408F4097F8592320
:102AC00007F5C87333F91230194697F859233B4676
:102AD00033F8123007F548700A46B94908F0E6FDA8
:102AE00007F548731846FDF733FB03469AB207F51E
:102AF00048713223B34804F0A4F997F859330133ED
:102B000087F8593397F8592397F85A339A42D5D30F
:102B1000AD4B1B7803F00103DBB2002B06D114236D
:102B20000122AA49A74804F08CF905E014230122E8
:102B3000A749A44804F085F9002387F85A33A54B28
:102B400003F10804D4E900341A46234607F554710A
:102B5000D1E90001FDF7C0FC03460C4607F55272AF
:102B6000C2E900349B4BD3E9044507F55E73D3E912
:102B7000002307F55471D1E90001FDF7F7FA024689
:102B80000B4620462946FDF7A7FC03460C4618468F
:102B9000214607F55073D3E90023FDF79DFC03465A
:102BA0000C46184621464FF000024FF08043FDF7D7
:102BB000BDFD03460C461A46234607F55A71D1E976
:102BC0000001FDF7D3FA03460C4607F55A72C2E935
:102BD0000034814B1B881846FDF714FC03460C4655
:102BE0001A46234607F55A71D1E90001FDF704FFA3
:102BF0000346002B0AD0784B1B881846FDF7F2FBE2
:102C000003460C4607F55A72C2E90034724B1B8822
:102C10005B421846FDF7F6FB03460C461A46234670
:102C200007F55A71D1E90001FDF7C8FE0346002BF4
:102C30000BD0694B1B885B421846FDF7E3FB03464C
:102C40000C4607F55A72C2E9003407F55E73D3E902
:102C5000002307F55471D1E90001FDF785FA034619
:102C60000C461846214607F55073D3E90023FDF7BB
:102C70005DFD03460C4618462146564B03F11804E9
:102C8000D4E900341A462346FDF726FC03460C46D9
:102C900007F55C72C2E900344F4B1B881846FDF7FC
:102CA000B1FB03460C461A46234607F55C71D1E991
:102CB0000001FDF7A1FE0346002B0AD0464B1B88FE
:102CC0001846FDF78FFB03460C4607F55C72C2E918
:102CD0000034414B1B885B421846FDF793FB0346CB
:102CE0000C461A46234607F55C71D1E90001FDF751
:102CF00065FE0346002B0BD0374B1B885B42184602
:102D0000FDF780FB03460C4607F55C72C2E9003410
:102D100007F55A73D3E9002307F55271D1E9000191
:102D2000FDF724FA03460C461846214607F55C7366
:102D3000D3E90023FDF71AFA03460C46184621464C
:102D4000FDF77AFE0346A7F86433B7F96433224AE5
:102D50001288934203DD204B1B88A7F86433B7F930
:102D60006433002B02DA0023A7F86433B7F8642336
:102D70001A4B1B8813449BB2A7F86633124B1B787F
:102D800003F00103DBB2002B04D0154B1B68B7F92D
:102D900066235A6307F5547318CB07F55E72C2E9D0
:102DA0000034094B1B7803F00103DBB2002B1BD06E
:102DB00003210B20FEF714FE0A48FEF7E3FD33E083
:102DC00034EF0008000A0020F809002030EF000866
:102DD0003CEF000800000020FA090020940A0020BF
:102DE000B809002024EF000803210B20FEF7F8FDAE
:102DF0004E48FEF7C7FD40F6C843A7F866334FF0CC
:102E000000034FF0000407F55A72C2E900344FF096
:102E100000034FF0000407F55C72C2E90034444B34
:102E20001B6840F6C8425A63424B93F900301A4679
:102E3000B7F93E3307F548703F4908F037FC0021E9
:102E40000020FEF7CDFD07F548731846FEF79AFD02
:102E5000B7F96633A3F6C843642202FB03F3374A8B
:102E600082FB03129212DB17D31AA7F83633314BC9
:102E700003F10804D4E90034B7F8362307F54870A5
:102E800000921A4623462E4908F010FC012100202A
:102E9000FEF7A6FD07F548731846FEF773FD254BB0
:102EA00003F11004D4E9003407F548701A462346AC
:102EB000244908F0FBFB02210020FEF791FD07F5F5
:102EC00048731846FEF75EFD1A4B03F11804D4E967
:102ED000003407F548701A4623461B4908F0E6FB04
:102EE00003210020FEF77CFD07F548731846FEF726
:102EF00049FD164B1B7803F00403DBB2002B7FF473
:102F000077AC0B4B1B6840F6C8425A630F4A1378E4
:102F10006FF3000313700D4A13786FF3C713137028
:102F200000BF07F56077BD46B0BD00BF18EF0008D1
:102F3000B80900200000002040EF0008D5831150A0
:102F400058EF000870EF00087CEF0008F809002037
:102F5000B0B59AB002AF4FF000034FF00004C7E9DC
:102F60000C344FF000034FF00004C7E916344FF063
:102F700000034FF00004C7E90A344FF000034FF09C
:102F80000004C7E914344FF000034FF00004C7E910
:102F900012344FF000034FF00004C7E90834002357
:102FA000A7F846300023A7F844300023FB8301F044
:102FB000FFF938640E2387F83D30294A13786FF300
:102FC00000031370274B1A88274B1B88D31A9AB219
:102FD000264B1A8042E2FFF7F3F903467B777A7FAC
:102FE00097F83D309A4246D07B7F0E2B31D801A214
:102FF00052F823F03D3000085330000853300008E9
:103000005330000853300008533000085330000894
:103010005330000853300008533000084730000890
:103020005330000853300008313000085330000896
:103030000B4A13786FF3820313700AE04FF080435A
:1030400000225A6205E0064A13786FF300031370FA
:1030500000BF7B7F0E2B0BD10D2387F83D300AE09C
:10306000F8090020CC050020940A0020FA0900206D
:103070007B7F87F83D304FF080435B6A1BB2002BAB
:1030800000DA03339B10FB83B14B1B78002B02D07B
:10309000B048FFF78BF8B04B1B7803F00103DBB2AD
:1030A000002B00F046813B6CBB6101F081F9386474
:1030B0003A6CBB69D31A1846FDF794F903460C46DF
:1030C000C7E90834FB8F1846FDF79CF9D7E90823B8
:1030D000FDF74CF803460C4618462146FDF7D4FC94
:1030E0000346FB874FF000029C4BD7E90801FDF730
:1030F0001DFB03460C46C7E90834994B93F9003091
:103100001A46B7F91E30D31A1846FDF77BF9034665
:103110000C46C7E90C34924B03F10804D4E900349F
:103120001A462346D7E90C01FDF7D6F903460C46AB
:10313000C7E90A348A4BD3E90445D7E91623D7E90E
:103140000C01FDF713F802460B4620462946FDF711
:10315000C3F903460C4618462146D7E90823FDF774
:10316000BBF903460C46184621464FF000024FF0CB
:103170008043FDF7DBFA03460C461A462346D7E99F
:103180001201FCF7F3FF03460C46C7E91234754BF6
:103190001B881846FDF736F903460C461A462346A7
:1031A000D7E91201FDF728FC0346002B08D06D4B30
:1031B0001B881846FDF716F903460C46C7E912347A
:1031C000684B1B885B421846FDF71CF903460C460A
:1031D0001A462346D7E91201FDF7F0FB0346002B00
:1031E00009D0604B1B885B421846FDF70BF903467C
:1031F0000C46C7E91234D7E91623D7E90C01FCF7CE
:10320000B3FF03460C4618462146D7E90823FDF7CD
:103210008DFA03460C4618462146514B03F118041B
:10322000D4E900341A462346FDF756F903460C4606
:10323000C7E914344B4B1B881846FDF7E3F80346E7
:103240000C461A462346D7E91401FDF7D5FB034681
:10325000002B08D0434B1B881846FDF7C3F80346E4
:103260000C46C7E914343F4B1B885B421846FDF7F8
:10327000C9F803460C461A462346D7E91401FDF760
:103280009DFB0346002B09D0364B1B885B4218463A
:10329000FDF7B8F803460C46C7E91434D7E9122302
:1032A000D7E90A01FCF762FF03460C46184621469F
:1032B000D7E91423FCF75AFF03460C46184621466B
:1032C000FDF7BAFB0346A7F84430B7F94430254A66
:1032D0001288934203DD234B1B88A7F84430B7F9CB
:1032E0004430002B02DA0023A7F84430B7F844201A
:1032F0001D4B1B8813449BB2A7F84630164B1B7816
:1033000003F00103DBB2002B04D0184B1B68B7F9A4
:1033100046205A63B7F91E20FB8F3846144908F03F
:10332000C5F93B461846FEF720FCD7E90C34C7E93F
:103330001634094B1B7803F00103DBB2002B1BD0C2
:1033400003210B20FEF74CFB0A48FEF71BFB2AE08B
:103350008E030020400A0020F809002000408F4022
:1033600000000020FA090020940A0020B80900207B
:1033700088EF000824EF000803210B20FEF730FB44
:103380004148FEF7FFFA40F6C843A7F846304FF031
:1033900000034FF00004C7E912344FF000034FF070
:1033A0000004C7E91434394B93F900301A46B7F9D1
:1033B0001E303846364908F079F900210020FEF722
:1033C0000FFB3B461846FEF7DDFAB7F94630A3F689
:1033D000C843642202FB03F32E4A82FB03129212BB
:1033E000DB17D31AFB82294B03F10804D4E900341C
:1033F000FA8A384600921A462346274908F056F9B9
:1034000001210020FEF7ECFA3B461846FEF7BAFA17
:103410001E4B03F11004D4E9003438461A46234603
:103420001E4908F043F902210020FEF7D9FA3B4675
:103430001846FEF7A7FA154B03F11804D4E9003437
:1034400038461A462346164908F030F90321002071
:10345000FEF7C6FA3B461846FEF794FA114B1B7866
:1034600003F00403DBB2002B7FF4B5AD0E4B1B68F9
:1034700040F6C8425A630B4A13786FF30003137087
:1034800000BF6037BD46B0BD18EF00080000002047
:1034900040EF0008D583115058EF000870EF000886
:1034A0007CEF0008F8090020B809002090B58BB027
:1034B00000AF0E2387F8273040F6C8433B62A64A88
:1034C00013786FF30003137003210420FEF788FACA
:1034D000A248FEF757FA01F08BF9FDF7A3FD28E1AA
:1034E000FEF76EFF0346FB7797F827300B2B03D0D0
:1034F00097F827300C2B02D1102387F82730FA7F5A
:1035000097F827309A4200F0B980FB7F0E2B00F22B
:10351000B28001A252F823F0613500086B35000833
:1035200073350008773600087736000877360008CC
:10353000773600087B350008B93500087736000873
:103540001B360008F7350008093600085535000815
:1035500077360008804A13786FF3820313708AE08D
:103560004FF0804300225A6285E040F6C8433B6238
:1035700081E041F692133B627DE03B6A9AB2784B60
:103580001A80774B1B8819460020FDF79DFF0A2003
:1035900000F018FF01210620FEF722FA7148FEF71D
:1035A000F1F9FA2000F00EFF01210620FEF718FACB
:1035B0006D48FEF7E7F95EE03B6A9AB26B4B1A8002
:1035C0006A4B1B8819460120FDF77EFF0A2000F098
:1035D000F9FE01210620FEF703FA6548FEF7D2F94D
:1035E000FA2000F0EFFE01210620FEF7F9F95E480F
:1035F000FEF7C8F93FE03B6A41F69112934237DC8F
:103600003B6A02333B6233E03B6A40F6C842934276
:1036100030DD3B6A023B3B622CE04F4B1B78C3F32F
:103620000003DBB283F00103D9B24B4A137861F394
:1036300000031370484B1B7803F00103DBB2002B2F
:1036400007D003210420FEF7CBF94A48FEF79AF988
:1036500011E003210420FEF7C3F94048FEF792F978
:1036600040F6C8433B62444B1B683A6A5A6302E027
:1036700000BF00E000BFFB7F87F82730364B1B7888
:1036800003F00103DBB2002B04D03B4B1B683A6A0A
:103690005A6304E0384B1B6840F6C8425A634FF047
:1036A00080435B6ABB83B7F91C301846FDF716FBF5
:1036B00003464FF081411846FDF718FC0346BB61F5
:1036C000B869FCF7B1FE03460C46381D1A4623467E
:1036D0002A4907F0EBFF00210420FEF781F93B1D8A
:1036E0001846FEF74FF93B6AA3F6C843642202FB73
:1036F00003F31846FDF7F2FA034621491846FDF791
:10370000F5FB03467B617869FCF78EFE03460C46A9
:10371000381D1A4623461B4907F0C8FF0221042022
:10372000FEF75EF93B1D1846FEF72CF9012000F06C
:1037300049FE094B1B7803F00403DBB2002B7FF436
:10374000CFAE0D4B1B6840F6C8425A6301F076F8C5
:1037500000BF2C37BD4690BDF809002094EF00084B
:10376000940A0020A4EF0008B0EF0008CC05002068
:10377000BCEF0008C8EF0008B8090020D8EF000827
:1037800000A04C45E8EF000890B58FB000AF0E23C5
:1037900087F83730002387F83630FEF7E3F800214A
:1037A0000620FEF71DF9CE48FEF7ECF801210920AE
:1037B000FEF716F9CB48FEF7E5F802210920FEF7DF
:1037C0000FF9C948FEF7DEF803210920FEF708F9D2
:1037D000C648FEF7D7F8C64A137843F004031370BF
:1037E000C34A13786FF3C30313706DE0FEF7E8FD6F
:1037F000034687F8273097F8272097F837309A4202
:1038000062D097F8363019460320FEF7E9F8B94838
:10381000FEF7B8F897F8363019461120FEF7E0F8B1
:10382000B448FEF7AFF897F827300B2B06D197F97D
:103830003630DBB2013BDBB287F8363097F8273001
:103840000C2B06D197F93630DBB20133DBB287F8A7
:10385000363097F93630002B02DA032387F83630FA
:1038600097F93630032B02DD002387F8363097F8BE
:10387000363019460320FEF7B3F89F48FEF782F86A
:1038800097F8363019461120FEF7AAF89B48FEF744
:1038900079F897F8273087F8373097F827300E2BCC
:1038A00009D1934A13786FF382031370904A137807
:1038B00043F00803137097F827300D2B04D18C4A7E
:1038C00013786FF382031370894B1B7803F00403A2
:1038D000DBB2002B8AD1864B1B7803F00803DBB2E6
:1038E000002B00F03F81FEF73DF897F93630002BB2
:1038F00020D100210020FEF773F88148FEF742F83E
:10390000804B93F900301A4607F110037E491846A0
:1039100007F0CCFE02210220FEF762F807F1100347
:103920001846FEF72FF803210320FEF759F87748D1
:10393000FEF728F897F93630012B22D1002100201C
:10394000FEF74EF87248FEF71DF86E4B03F10804BF
:10395000D4E9003407F110001A4623466D4907F0F8
:10396000A5FE02210220FEF73BF807F110031846DE
:10397000FEF708F803210320FEF732F86648FEF749
:1039800001F897F93630022B22D100210020FEF7F2
:1039900027F86248FDF7F6FF5A4B03F11004D4E90B
:1039A000003407F110001A4623465D4907F07EFEF9
:1039B00002210220FEF714F807F110031846FDF764
:1039C000E1FF03210320FEF70BF85648FDF7DAFF6D
:1039D00097F93630032B22D100210020FEF700F8A2
:1039E0005148FDF7CFFF474B03F11804D4E90034E9
:1039F00007F110001A4623464C4907F057FE0221F2
:103A00000220FDF7EDFF07F110031846FDF7BAFF9E
:103A100003210320FDF7E4FF4548FDF7B3FF3B1DFD
:103A2000184600F0B7F8324B1B7803F01003DBB2F6
:103A3000002B00F094800E2387F837303B1D18468A
:103A400006F0C6FFC7E90A0123A3D3E90023D7E99B
:103A50000A01FCF7D1FF0346002B04D01EA4D4E9D1
:103A60000034C7E90A3497F93630032B7AD801A21B
:103A700052F823F0853A0008393B0008453B00081E
:103A8000513B00084FF000022A4BD7E90A01FCF72E
:103A9000B3FF0346002B04D04FF00003254CC7E9C9
:103AA0000A344FF000024FF00003D7E90A01FCF797
:103AB00085FF0346002B05D04FF000034FF00004B4
:103AC000C7E90A34D7E90A01FCF7B6FF03465AB240
:103AD0000C4B1A7046E000BF0000000000388F4019
:103AE000FCEF000808F000080CF0000810F00008D7
:103AF000F809002014F0000818F000081CF0000875
:103B000020F000080000002038F0000848F000080D
:103B100054F000086CF0000880F000088CF00008F9
:103B2000A4F00008B8F00008C4F00008DCF00008B9
:103B3000F0F0000800805640144AD7E90A34C2E980
:103B400002340FE0114AD7E90A34C2E9043409E02B
:103B50000E4AD7E90A34C2E9063400BF02E00D2359
:103B600087F837300A4B1B7803F00403DBB2002BD5
:103B70007FF415AE064A137843F004031370FDF783
:103B8000F1FE00BF3C37BD4690BD00BF00000020E5
:103B9000F809002080B584B000AF78600E23FB7375
:103BA0000023BB7307E0BB7B7A68134420221A70A2
:103BB000BB7B0133BB73BB7B062BF4D90023BB73E8
:103BC0004E4A137843F02003137084E0FEF7F8FBAD
:103BD00003467B73FA7B7B7B9A427AD07B7B102BEC
:103BE00077D07B7B0A3B052B54D801A252F823F0F7
:103BF000093C0008CD3C0008CD3C00084B3C0008C7
:103C0000353C0008613C0008BB7B002B02D0BB7B2D
:103C1000013BBB73BB7B7A68134420221A70BB7BC9
:103C20000B33DBB203211846FDF7DAFE2020FDF747
:103C3000C3FE4EE0314A13786FF3451313702F4AD9
:103C4000137843F01003137043E02C4A13786FF39A
:103C500045131370294A13786FF30413137038E077
:103C6000BB7B062B34D8BB7B7A6813442E221A7098
:103C7000BB7B0B33DBB203211846FDF7B1FEBB7BE8
:103C80007A6813441B781846FDF796FEBB7B013318
:103C9000BB731DE0BB7B072B1BD8BB7B7A6813442F
:103CA0007A7B3032D2B21A70BB7B0B33DBB203218A
:103CB0001846FDF795FEBB7B7A6813441B781846BF
:103CC000FDF77AFEBB7B0133BB7302E000BF00E06F
:103CD00000BF7B7BFB73094B1B7803F02003DBB237
:103CE000002B7FF473AF054A137843F0040313707D
:103CF000FDF738FE00BF1037BD4680BDF809002033
:103D000090B58BB004AF07F10C0107F110023B46F0
:103D100002933B1D019307F1080300930B463B49B7
:103D20003B4807F0E3FC78617B69052B67D13B6971
:103D30001846FCF779FB03460C46364AC2E90234C2
:103D4000FB681846FCF770FB03460C46314AC2E993
:103D50000434BB681846FCF767FB03460C462D4A43
:103D6000C2E906347B685AB22A4B1A703B6840F2AB
:103D70002B22934204D1284A137843F00103137095
:103D80003B68B3F5DE7F04D1234A13786FF3000359
:103D900013703B683C2B01DD3C233B603B68DAB28F
:103DA0001C4B5A701C4A13786FF3861313701A4B0E
:103DB0001B7823F07F03DBB2002B20D014230122D9
:103DC0001649174803F03DF8142000F0FBFA1423BD
:103DD00001221249124803F034F8142000F0F2FADC
:103DE000142301220D490E4803F02BF8142000F093
:103DF000E9FA142301220949094803F022F8094B82
:103E000000221A7000BF1C37BD4690BDA0EE00080E
:103E1000D005002000000020F8090020FCF0000878
:103E2000000A00208F03002080B582B000AFFDF7AC
:103E300099FD00210020FDF7D3FD2548FDF7A2FDE7
:103E400001210120FDF7CCFD2248FDF79BFD022159
:103E50000020FDF7C5FD2048FDF794FD032101205A
:103E6000FDF7BEFD1D48FDF78DFD012210211C4808
:103E700000F0A8FF01222021194800F0A3FFFA203A
:103E800000F0A0FA00222021154800F09BFF4FF41B
:103E9000FA6000F097FA00221021114800F092FF1A
:103EA0000BE0FEF78DFA0346FB71FB790D2B04D175
:103EB0000C4A13786FF3820313700A4B1B7803F0DC
:103EC0000403DBB2002BECD100BF0837BD4680BD38
:103ED00000F1000814F1000828F1000840F1000882
:103EE000000C0140F809002080B400AF00BFBD46BF
:103EF00080BC704780B485B000AF154B9B69144AF5
:103F000043F001039361124B9B6903F00103BB6013
:103F1000BB680F4BDB690E4A43F08053D3610C4BF7
:103F2000DB6903F080537B607B680A4B5B68FB6056
:103F3000FB6823F0E063FB60FB6843F00073FB6009
:103F4000044AFB68536000BF1437BD4680BC70470D
:103F5000001002400000014080B58AB000AF7860D8
:103F600007F1140300221A605A609A60DA607B68D5
:103F70001B68B3F1804F4ED1294BDB69284A43F0CF
:103F80000103D361264BDB6903F001033B613B690D
:103F9000234B9B69224A43F004039361204B9B69A6
:103FA00003F00403FB60FB681D4B9B691C4A43F054
:103FB000080393611A4B9B6903F00803BB60BB685D
:103FC0004FF400437B610023BB610023FB6107F1D9
:103FD00014031946134800F09BFD08237B6100235E
:103FE000BB610023FB6107F1140319460E4800F082
:103FF0008FFD0E4B5B687B627B6A23F440737B62B0
:104000007B6A43F0E0637B627B6A43F480737B628C
:10401000064A7B6A536000BF2837BD4680BD00BF9B
:104020000010024000080140000C01400000014067
:1040300080B485B000AF78607B681B68094A934202
:104040000BD1094BDB69084A43F00403D361064BEB
:10405000DB6903F00403FB60FB6800BF1437BD4657
:1040600080BC7047000800400010024080B588B056
:1040700000AF786007F1100300221A605A609A605E
:10408000DA607B681B680F4A934217D10E4B9B691D
:104090000D4A43F0080393610B4B9B6903F008033F
:1040A000FB60FB6840233B6102237B610223FB61D1
:1040B00007F110031946054800F02AFD00BF20371C
:1040C000BD4680BD0008004000100240000C0140C9
:1040D00080B588B000AF786007F1100300221A6045
:1040E0005A609A60DA607B681B68204A934239D133
:1040F0001F4B9B691E4A43F4804393611C4B9B6991
:1041000003F48043FB60FB68194B9B69184A43F03A
:1041100004039361164B9B6903F00403BB60BB6807
:104120004FF400733B6102237B610323FB6107F1C2
:10413000100319460F4800F0EBFC4FF480633B611D
:1041400000237B610023BB6107F110031946094876
:1041500000F0DEFC00220021252000F02CFA2520B2
:1041600000F045FA00BF2037BD4680BD0038014051
:10417000001002400008014080B400AF00BFBD46FF
:1041800080BC704780B400AFFEE780B400AFFEE7AC
:1041900080B400AFFEE780B400AFFEE780B400AFAC
:1041A00000BFBD4680BC704780B400AF00BFBD46B5
:1041B00080BC704780B400AF00BFBD4680BC704774
:1041C00080B500AF00F0E2F800BF80BD80B500AF61
:1041D000024800F016FF00BF80BD00BF5C17002042
:1041E00080B500AF024802F019FF00BF80BD00BFDC
:1041F000000A002080B584B000AF7860114B1B68C6
:10420000002B02D10F4B104A1A600E4B1B68FB604B
:104210000C4B1A687B6813446A46934207D906F030
:10422000DFFB02460C2313604FF0FF3306E0054B23
:104230001A687B681344034A1360FB6818461037FA
:10424000BD4680BD94030020D019002080B400AF8B
:10425000154B1B68144A43F001031360124B5A6854
:104260001149124B13404B600F4B1B680E4A23F051
:10427000847323F4803313600B4B1B680A4A23F4C6
:1042800080231360084B5B68074A23F4FE035360E6
:10429000054B4FF41F029A60054B4FF000629A6085
:1042A00000BFBD4680BC7047001002400000FFF810
:1042B00000ED00E0002103E00B4B5B58435004315C
:1042C0000A480B4B42189A42F6D30A4A02E00023EE
:1042D00042F8043B084B9A42F9D3FFF7B7FF06F0C8
:1042E00085FBFDF79BFC70472CF6000800000020C2
:1042F0006C03002070030020CC190020FEE70000B2
:1043000080B500AF084B1B68074A43F010031360E9
:10431000032000F045F9002000F008F8FFF7EAFD5F
:104320000023184680BD00BF0020024080B582B047
:1043300000AF7860124B1A68124B1B7819464FF485
:104340007A73B3FBF1F3B2FBF3F3184600F05DF9B7
:104350000346002B01D001230EE07B680F2B0AD807
:10436000002279684FF0FF3000F025F9064A7B689B
:104370001360002300E0012318460837BD4680BDC6
:1043800020000020280000202400002080B400AF7E
:10439000054B1B781A46054B1B681344034A1360F0
:1043A00000BFBD4680BC704728000020980A00204E
:1043B00080B400AF024B1B681846BD4680BC7047F6
:1043C000980A002080B584B000AF7860FFF7F0FF56
:1043D000B8607B68FB60FB68B3F1FF3F05D0094B19
:1043E0001B781A46FB681344FB6000BFFFF7E0FF31
:1043F0000246BB68D31AFA689A42F7D800BF103752
:10440000BD4680BD2800002080B485B000AF786034
:104410007B6803F00703FB600C4BDB68BB60BA688A
:104420004FF6FF031340BB60FB681A02BB681343DF
:1044300043F0BF6343F40033BB60044ABB68D360FE
:1044400000BF1437BD4680BC704700BF00ED00E0E0
:1044500080B400AF044BDB681B0A03F00703184667
:10446000BD4680BC704700BF00ED00E080B483B063
:1044700000AF0346FB7197F90730002B0BDBFB798C
:1044800003F01F02064997F907305B09012000FA83
:1044900002F241F8232000BF0C37BD4680BC7047B4
:1044A00000E100E080B483B000AF03463960FB71E7
:1044B00097F90730002B0ADB3B68DAB20C4997F911
:1044C00007301201D2B20B4483F800230AE03B68A4
:1044D000DAB20849FB7903F00F03043B1201D2B2B0
:1044E0000B441A7600BF0C37BD4680BC704700BF36
:1044F00000E100E000ED00E080B489B000AFF860BA
:10450000B9607A60FB6803F00703FB61FB69C3F1E4
:104510000703042B28BF0423BB61FB690433062B6C
:1045200002D9FB69033B00E000237B614FF0FF32BF
:10453000BB6902FA03F3DA43BB681A407B699A400D
:104540004FF0FF317B6901FA03F3D9437B680B40DD
:10455000134318462437BD4680BC704780B582B0EF
:1045600000AF78607B68013BB3F1807F01D301230A
:104570000FE00A4A7B68013B53600F214FF0FF3088
:10458000FFF790FF054B00229A60044B07221A6048
:10459000002318460837BD4680BD00BF10E000E08C
:1045A00080B582B000AF78607868FFF72DFF00BF5C
:1045B0000837BD4680BD80B586B000AF0346B96000
:1045C0007A60FB7300237B61FFF742FF78617A68B2
:1045D000B9687869FFF790FF024697F90F301146E6
:1045E0001846FFF75FFF00BF1837BD4680BD80B596
:1045F00082B000AF0346FB7197F907301846FFF70A
:1046000035FF00BF0837BD4680BD80B582B000AF22
:1046100078607868FFF7A2FF034618460837BD4662
:1046200080BD000080B584B000AF78600023FB73CC
:104630007B6893F82130022B05D07B6804229A63B3
:104640000123FB7351E07B681B681A687B681B6859
:1046500022F00E021A607B681B681A687B681B6870
:1046600022F001021A607B681B68224A934229D01B
:104670007B681B68204A934222D07B681B681F4AD4
:1046800093421AD07B681B681D4A934212D07B6804
:104690001B681C4A93420AD07B681B681A4A9342E3
:1046A00002D14FF480130EE04FF080730BE04FF413
:1046B000803308E04FF4805305E04FF4807302E04C
:1046C000102300E00123114A53607B68012283F824
:1046D00021207B68002283F820207B685B6B002B05
:1046E00003D07B685B6B78689847FB7B1846103774
:1046F000BD4680BD080002401C0002403000024060
:1047000044000240580002406C0002400000024099
:10471000F0B587B000AFF860B960C7E900230123A6
:10472000FB750023BB7500237B752F4B1B7E012B74
:1047300001D1022354E02C4B01221A764CF2503066
:1047400000F0A8F80346FB75FB7D002B44D1FB6805
:10475000012B02D101237B7507E0FB68022B02D1FC
:1047600002237B7501E004237B750023BB752DE0DC
:10477000BB7D5A00BB6802EB030CBB7D1901D7E976
:104780000023C1F12006A1F1200022FA01F403FA6E
:1047900006F6344323FA00F0044323FA01F5A3B2EA
:1047A0001946604600F05AF84CF2503000F072F8AA
:1047B0000346FB750D4B1B690C4A23F00103136183
:1047C000FB7D002B07D1BB7D0133BB75BA7D7B7DA3
:1047D0009A42CDD300E000BF034B00221A76FB7D46
:1047E00018461C37BD46F0BDA00A0020002002403C
:1047F00080B483B000AF0023FB710D4B1B6903F045
:104800008003002B0DD00A4B0A4A5A60084B0A4A13
:104810005A60074B1B6903F08003002B01D0012372
:10482000FB71FB7918460C37BD4680BC704700BF52
:104830000020024023016745AB89EFCD80B400AF73
:10484000054B1B69044A43F080031361002318469B
:10485000BD4680BC704700BF0020024080B483B0DA
:1048600000AF78600B467B80084B0022DA61084B72
:104870001B69074A43F0010313617B687A881A8039
:1048800000BF0C37BD4680BC704700BFA00A0020A7
:104890000020024080B584B000AF7860FFF788FD4B
:1048A000F86010E07B68B3F1FF3F0CD07B68002B11
:1048B00007D0FFF77DFD0246FB68D31A7A689A425B
:1048C00001D2032325E0154BDB6803F00103002B25
:1048D000E8D1124BDB6803F02003002B02D00F4B12
:1048E0002022DA600D4BDB6803F01003002B0BD1A4
:1048F0000A4BDB6903F00103002B05D1074BDB6892
:1049000003F00403002B03D000F00AF8012300E0B9
:10491000002318461037BD4680BD00BF002002406E
:1049200080B483B000AF00237B60234BDB6803F0CF
:104930001003002B09D0214BDB6943F002031F4A0F
:10494000D3617B6843F010037B601B4BDB6803F093
:104950000403002B09D0194BDB6943F00103174A0C
:10496000D3617B6843F004037B60134BDB6903F086
:104970000103002B0BD0114BDB6943F004030F4AFA
:10498000D3610D4BDB690C4A23F00103D3617B68D3
:1049900040F20112934206D1074BDB69064A23F02D
:1049A0000103D36102E0044A7B68D36000BF0C3787
:1049B000BD4680BC704700BF00200240A00A002016
:1049C00080B584B000AF786039600123FB730023A9
:1049D000BB602F4B1B7E012B01D1022353E02C4BDC
:1049E00001221A767B681B68022B16D14CF25030DC
:1049F000FFF750FF0346002B41D1012000F04CF897
:104A00004CF25030FFF746FF0346FB73214B1B6906
:104A1000204A23F00403136131E04CF25030FFF7D9
:104A200039FF0346002B2AD13B684FF0FF321A6052
:104A30007B689B68BB6019E0B86800F049F84CF2ED
:104A40005030FFF727FF0346FB73124B1B69114AD7
:104A500023F002031361FB7B002B03D03B68BA6891
:104A60001A600CE0BB6803F58063BB607B68DB68A1
:104A70009A027B689B681344BA689A42DCD3044B61
:104A800000221A76FB7B18461037BD4680BD00BF5A
:104A9000A00A00200020024080B483B000AF7860FC
:104AA000094B0022DA61094B1B69084A43F00403F1
:104AB0001361064B1B69054A43F04003136100BFB5
:104AC0000C37BD4680BC7047A00A00200020024081
:104AD00080B483B000AF78600B4B0022DA610B4BDF
:104AE0001B690A4A43F002031361084A7B68536159
:104AF000064B1B69054A43F04003136100BF0C37A6
:104B0000BD4680BC704700BFA00A002000200240C4
:104B100080B48BB000AF7860396000237B620023E3
:104B20003B6227E101227B6A02FA03F3FB613B68E7
:104B30001B68FA691340BB61BA69FB699A4240F08D
:104B400016813B685B68122B34D0122B0DD8022BD8
:104B50002BD0022B04D8002B31D0012B1CD048E0E5
:104B6000032B43D0112B1BD043E0894A934226D01C
:104B7000874A934206D8874A934220D0864A934276
:104B80001DD036E0854A934219D0854A934216D00B
:104B9000844A934213D02CE03B68DB683B6228E0F8
:104BA0003B68DB6804333B6223E03B68DB68083327
:104BB0003B621EE03B68DB680C333B6219E03B68FC
:104BC0009B68002B02D104233B6212E03B689B6888
:104BD000012B05D108233B627B68FA691A6108E062
:104BE00008233B627B68FA695A6102E000233B625A
:104BF00000BFBB69FF2B01D87B6801E07B680433F1
:104C00007B61BB69FF2B02D87B6A9B0002E07B6A59
:104C1000083B9B003B617B691A680F213B6901FAE5
:104C200003F3DB431A40396A3B6901FA03F31A4381
:104C30007B691A603B685B6803F08053002B00F0CF
:104C40009680594B9B69584A43F001039361564B38
:104C50009B6903F00103BB60BB68544A7B6A9B08F5
:104C6000023352F82330FB607B6A03F003039B009E
:104C70000F2202FA03F3DB43FA681340FB607B6800
:104C80004B4A934213D07B684A4A93420DD07B68CB
:104C9000494A934207D07B68484A934201D1032393
:104CA00006E0042304E0022302E0012300E00023E5
:104CB0007A6A02F0030292009340FA681343FB60A1
:104CC0003A497B6A9B080233FA6841F823203B6823
:104CD0005B6803F48033002B06D0394B1A683849DF
:104CE000BB6913430B6006E0354B1A68BB69DB43B5
:104CF000334913400B603B685B6803F40033002BBF
:104D000006D02F4B5A682E49BB6913434B6006E00F
:104D10002B4B5A68BB69DB43294913404B603B6806
:104D20005B6803F48013002B06D0254B9A68244956
:104D3000BB6913438B6006E0214B9A68BB69DB4378
:104D40001F4913408B603B685B6803F40013002B22
:104D500006D01B4BDA681A49BB691343CB6006E0E7
:104D6000174BDA68BB69DB4315491340CB607B6A9C
:104D700001337B623B681A687B6A22FA03F3002BDB
:104D80007FF4D0AE00BF2C37BD4680BC704700BF5B
:104D9000000021100000111000001210000031105E
:104DA00000003210000022100010024000000140FC
:104DB00000080140000C01400010014000140140B7
:104DC0000004014080B483B000AF78600B467B8064
:104DD00013467B707B78002B03D07A887B681A613E
:104DE00003E07B881A047B681A6100BF0C37BD465C
:104DF00080BC7047F0B58BB006AF78607B68002B45
:104E000001D10123D3E07B6893F82932DBB2002B78
:104E100006D17B68002283F82822786805F03AFBE7
:104E20007B68032283F829227B681B68184602F0FE
:104E30006EFC7B681B683B607E686D4606F1100463
:104E40000FCC0FC523682B60331D0ECB386802F0E2
:104E500037FC0346002B05D07B68022283F8292209
:104E60000123A4E07B681B680021184602F06BFC5C
:104E70000023FB7335E0FB7B7A685B011344293325
:104E800001221A70FB7B7A685B0113442833FA7B9A
:104E90001A70FB7BFA7B91B27A685B01134436335C
:104EA0000A461A80FB7B7A685B0113442B3300228D
:104EB0001A70FB7B7A685B011344383300221A6056
:104EC000FB7B7A685B0113443C3300221A60FB7B56
:104ED0007A6802335B01134400221A60FB7B0133C2
:104EE000FB73FA7B7B685B689A42C4D30023FB7335
:104EF00031E0FB7B7A685B01134403F22913002243
:104F00001A70FB7B7A685B01134403F59473FA7B98
:104F10001A70FB7B7A685B01134403F22B130022A7
:104F20001A70FB7B7A685B01134403F59C730022C3
:104F30001A60FB7B7A685B01134403F59E730022C1
:104F40001A60FB7B7A680A335B01134400221A6003
:104F5000FB7B0133FB73FA7B7B685B689A42C8D3A7
:104F60007B681B683B607E686D4606F110040FCCC1
:104F70000FC523682B60331D0ECB386802F0EFFBA2
:104F80000346002B05D07B68022283F829220123E7
:104F90000DE07B68002283F824207B68012283F8DF
:104FA00029227B681B68184603F02DFC0023184655
:104FB0001437BD46F0BD80B582B000AF78607B6825
:104FC00093F82832012B01D1022316E07B680122DD
:104FD00083F828220121786805F0C3FC7B681B68F0
:104FE000184603F006FC7B681B68184602F078FB45
:104FF0007B68002283F82822002318460837BD4624
:1050000080BD80B582B000AF78607B681B681846B1
:1050100003F003FC034603F40043B3F5004F02D151
:10502000786800F0F3FA7B681B68184603F0F5FB1C
:10503000034603F48063B3F5806F12D17B681B686D
:10504000B3F844309AB27B681B6822F4806292B253
:10505000A3F84420786805F092FA0021786800F0FF
:10506000DEF87B681B68184603F0D7FB034603F4A1
:105070008043B3F5804F0BD17B681B68B3F8443095
:105080009AB27B681B6822F4804292B2A3F8442053
:105090007B681B68184603F0C0FB034603F400530B
:1050A000B3F5005F0BD17B681B68B3F844309AB24C
:1050B0007B681B6822F4005292B2A3F844207B68FC
:1050C0001B68184603F0A9FB034603F48053B3F5AD
:1050D000805F26D17B681B68B3F840309AB27B684A
:1050E0001B6822F0040292B2A3F840207B681B6880
:1050F000B3F840309AB27B681B6822F0080292B283
:10510000A3F84020786805F073FA7B681B68B3F851
:1051100044309AB27B681B6822F4805292B2A3F8A2
:1051200044207B681B68184603F077FB034603F4B2
:105130000063B3F5006F3DD17B681B68B3F8403066
:105140009AB27B681B6842F0080292B2A3F8402032
:105150007B681B68B3F844309AB27B681B6822F402
:10516000006292B2A3F844207B681B68B3F8403019
:105170009AB27B681B6842F0040292B2A3F8402006
:105180007B681B68184603F048FB034603F4805312
:10519000B3F5805F0BD17B681B68B3F844309AB2DB
:1051A0007B681B6822F4805292B2A3F8442078688E
:1051B00005F004FA7B681B68184603F02EFB0346D3
:1051C00003F40073B3F5007F0ED17B681B68B3F85E
:1051D00044309AB27B681B6822F4007292B2A3F842
:1051E0004420786805F0BDF97B681B68184603F019
:1051F00014FB034603F48073B3F5807F0BD17B6807
:105200001B68B3F844309AB27B681B6822F4807242
:1052100092B2A3F8442000BF0837BD4680BD80B5D8
:1052200082B000AF78600B46FB707B6893F8283241
:10523000012B01D1022313E07B68012283F828228D
:105240007B68FA7883F824207B681B68FA7811461B
:10525000184603F0BBFA7B68002283F8282200235B
:1052600018460837BD4680BD80B584B000AF786071
:10527000084611461A460346FB700B463B80134610
:10528000BB700023FB7297F90330002B0BDAFB781D
:1052900003F007035B0128337A681344FB60FB6863
:1052A00001225A700BE0FB7803F007035B0103F562
:1052B00094737A681344FB60FB6800225A70FB7891
:1052C00003F00703DAB2FB681A703A88FB681A61C8
:1052D000FB68BA78DA70FB685B78002B04D0FB6857
:1052E0001B789AB2FB68DA81BB78022B02D1FB688B
:1052F00000221A717B6893F82832012B01D1022316
:105300000EE07B68012283F828227B681B68F9681D
:10531000184602F049FA7B68002283F82822FB7ABB
:1053200018461037BD4680BD80B584B000AF7860A8
:105330000B46FB7097F90330002B0BDAFB7803F078
:1053400007035B0128337A681344FB60FB68012282
:105350005A700BE0FB7803F007035B0103F59473CD
:105360007A681344FB60FB6800225A70FB7803F0F4
:105370000703DAB2FB681A707B6893F82832012BB6
:1053800001D102230EE07B68012283F828227B688A
:105390001B68F968184602F0F5FC7B68002283F868
:1053A0002822002318461037BD4680BD80B586B040
:1053B00000AFF8607A603B600B46FB72FB7A03F04B
:1053C00007035B0103F59473FA6813447B617B69FF
:1053D0007A685A617B693A689A617B690022DA616E
:1053E0007B6900225A70FB7A03F00703DAB27B690B
:1053F0001A70FB7A03F00703002B06D1FB681B68C9
:105400007969184602F054FE05E0FB681B6879696B
:10541000184602F04DFE002318461837BD4680BDE1
:1054200080B483B000AF78600B46FB70FB7803F06C
:1054300007037A680A335B01134404331B68184678
:105440000C37BD4680BC704780B586B000AFF860B1
:105450007A603B600B46FB72FB7A03F007035B014B
:105460002833FA6813447B617B697A685A617B69E7
:105470003A689A617B690022DA617B6901225A707D
:10548000FB7A03F00703DAB27B691A70FB7A03F048
:105490000703002B06D1FB681B687969184602F0E8
:1054A00007FE05E0FB681B687969184602F000FEFC
:1054B000002318461837BD4680BD80B584B000AFC4
:1054C00078600B46FB70FB7803F007027B685B6833
:1054D0009A4201D9012346E097F90330002B0BDAF9
:1054E000FB7803F007035B0128337A681344FB6001
:1054F000FB6801225A7009E0FB785B0103F59473A5
:105500007A681344FB60FB6800225A70FB68012232
:105510009A70FB7803F00703DAB2FB681A707B68B5
:1055200093F82832012B01D102231CE07B68012271
:1055300083F828227B681B68F968184603F070F826
:10554000FB7803F00703002B08D17B681A687B689F
:1055500003F50C731946104603F06EF97B680022C0
:1055600083F82822002318461037BD4680BD80B539
:1055700084B000AF78600B46FB70FB7803F00F023D
:105580007B685B689A4201D901233AE097F90330BE
:10559000002B0BDAFB7803F007035B0128337A68F2
:1055A0001344FB60FB6801225A700BE0FB7803F0A8
:1055B00007035B0103F594737A681344FB60FB688F
:1055C00000225A70FB6800229A70FB7803F00703F0
:1055D000DAB2FB681A707B6893F82832012B01D18C
:1055E00002230EE07B68012283F828227B681B6877
:1055F000F968184603F056F87B68002283F82822E1
:10560000002318461037BD4680BD000090B589B014
:1056100000AF786082E27B681B68B3F84430FB829D
:10562000FB8ADBB203F00F037B757B7D002B40F020
:105630004281FB8A03F01003002B51D17B681B6869
:105640001B889BB223F4E14323F070039CB27B6878
:105650001A686FEA44436FEA53439BB213807B6836
:105660002833FB607B681B68B3F850309BB21A4646
:10567000FB681B78DB00134402335B007A68126816
:10568000134403F580631B88C3F30902FB68DA61E6
:10569000FB685A69FB68DB691A44FB685A610021A0
:1056A000786804F047FF7B6893F82430DBB2002B66
:1056B00000F03482FB689B69002B40F02F827B68EE
:1056C00093F82430DBB263F07F03DAB27B681B68A7
:1056D00092B2A3F84C207B68002283F824201DE2BC
:1056E0007B6803F59473FB607B681B681B887B8277
:1056F0007B8A03F40063002B33D07B681B68B3F80C
:1057000050309BB21A46FB681B78DB00134406330B
:105710005B007A681268134403F580631B88C3F347
:105720000902FB68DA617B6818687B6803F50C7115
:10573000FB68DA88FB68DB699BB203F0CCF87B6816
:105740001B681B889AB240F68F7313409CB27B682B
:105750001B6844F0800292B21A80786804F0C0FEA0
:10576000DCE1B7F91230002B80F2D8817B681B682E
:105770001B889AB240F68F7313409CB27B681B68FB
:1057800044F0800292B21A807B681B68B3F85030F4
:105790009BB21A46FB681B78DB00134406335B00A0
:1057A0007A681268134403F580631B88C3F3090207
:1057B000FB68DA61FB68DB69002B19D0FB685B6969
:1057C000002B15D07B681868FB685969FB68DA887C
:1057D000FB68DB699BB203F07EF8FB685A69FB68E3
:1057E000DB691A44FB685A610021786804F08AFE7C
:1057F0007B681B681C467B681B68B3F850309BB203
:105800001C4404F20C431C46FB681B69002B0ED1A0
:1058100023889BB223F4F8439BB2238023889BB256
:105820006FEA43436FEA53439BB223802DE0FB684A
:105830001B693E2B12D8FB681B695B08BB61FB68C8
:105840001B6903F00103002B02D0BB690133BB616C
:10585000BB699BB29B029BB2238016E0FB681B696D
:105860005B09BB61FB681B6903F01F03002B02D1BE
:10587000BB69013BBB61BB699BB29B029BB26FEAF8
:1058800043436FEA53439BB223807B681B681B88AA
:105890009BB223F4804323F070039CB284F48053C2
:1058A0009CB284F400539CB27B681A68A24B2343D9
:1058B0009BB2138032E17B681B681A467B7D9B009C
:1058C00013441B887B82B7F91230002B80F2D18001
:1058D0007B681B681A467B7D9B0013441B889AB229
:1058E00040F68F7313409CB27B681B681A467B7D21
:1058F0009B00134444F0800292B21A807B7D5B01CE
:1059000003F594737A681344FB60FB681B7B002BE0
:1059100021D17B681B68B3F850309BB21A46FB68F4
:105920001B78DB00134406335B007A68126813446B
:1059300003F580631B88C3F30903FB83FB8B002BF8
:1059400072D07B681868FB685969FB68DA88FB8B42
:1059500002F0C1FF68E07B681B681A46FB681B7891
:105960009B0013441B889BB203F48043002B21D07F
:105970007B681B68B3F850309BB21A46FB681B78F3
:10598000DB00134402335B007A681268134403F5AA
:1059900080631B88C3F30903FB83FB8B002B2AD096
:1059A0007B681868FB685969FB681A89FB8B02F0F1
:1059B00092FF20E07B681B68B3F850309BB21A4618
:1059C000FB681B78DB00134406335B007A681268BF
:1059D000134403F580631B88C3F30903FB83FB8B2C
:1059E000002B08D07B681868FB685969FB685A89E6
:1059F000FB8B02F070FF7B681B681A46FB681B7804
:105A00009B0013441B889BB223F4E04323F07003F4
:105A10009CB27B681B681A46FB681B789B001A4483
:105A2000464B23439BB21380FB68DA69FB8B1A4415
:105A3000FB68DA61FB685A69FB8B1A44FB685A61A0
:105A4000FB689B69002B04D0FA8BFB681B699A42A8
:105A500006D2FB681B781946786804F053FD08E00D
:105A6000FB681978FB685A69FB689B697868FFF7DF
:105A70009DFC7B8A03F08003002B4FD07B7D5B0174
:105A800028337A681344FB607B681B681A467B7D69
:105A90009B0013441B889BB223F4E14323F0700363
:105AA0009CB27B681B681A467B7D9B001A446FEA98
:105AB00044436FEA53439BB213807B681B68B3F87F
:105AC00050309BB21A46FB681B78DB00134402334C
:105AD0005B007A681268134403F580631B88C3F384
